:020000040800F2
:100000000000012051030008610300086703000895
:1000100000000000000000000000000000000000E0
:1000200000000000000000000000000000000000D0
:1000300000000000000000000000000000000000C0
:1000400000000000000000000000000000000000B0
:1000500000000000000000000000000000000000A0
:100060000000000000000000000000000000000090
:100070000000000000000000000000000000000080
:100080000000000000000000000000000000000070
:100090000000000000000000000000000000000060
:1000A0000000000000000000000000000000000050
:1000B0000000000000000000000000000000000040
:1000C0000000000000000000000000000000000030
:1000D0000000000000000000000000000000000020
:1000E0000000000000000000000000000000000010
:1000F0000000000000000000000000000000000000
:1001000000000000000000000000000000000000EF
:1001100000000000000000000000000000000000DF
:1001200000000000000000000000000000000000CF
:1001300000000000000000000000000000000000BF
:1001400000000000000000000000000000000000AF
:10015000000000000000000000000000000000009F
:10016000000000000000000000000000000000008F
:10017000000000000000000000000000000000007F
:10018000000000000000000000000000000000006F
:10019000000000000000000000000000000000005F
:1001A000000000000000000000000000000000004F
:1001B000000000000000000000000000000000003F
:1001C000000000000000000000000000000000002F
:1001D000000000000000000000000000000000001F
:1001E000000000000000000000000000000000000F
:1001F00000000000000000000000000000000000FF
:1002000080B500AF00F007F800F0B0F800F0CCF8CF
:1002100000F00EF9FCE780B400AF2D4B1B682C4AB0
:1002200043F48033136000BF294B1B6803F4003391
:10023000002BF9D0274B1B68264A43F010031360AC
:10024000244B1B68234A23F007031360214B1B68D0
:10025000204A43F0040313601D4B5B691C4A43F0C2
:10026000805353611A4B5B68194A43F480635360AF
:10027000174B5B68164A43F4E0135360144B5B68FA
:10028000134A43F4C0335360114B1B68104A43F0C8
:100290008073136000BF0E4B1B6803F00073002BCC
:1002A000F9D00B4B5B680A4A23F003035360084BF9
:1002B0005B68074A43F00203536000BF044B5B686E
:1002C00003F00C03082BF9D100BFBD4680BC70477A
:1002D000001002400020024080B485B000AF174BF0
:1002E000FB60174BBB6000237B600CE0BB681A7897
:1002F000FB681A70FB680133FB60BB680133BB60AD
:100300007B6801337B600F4A7B689342EEDB0E4BC8
:10031000FB6000233B6007E03B68FA68134400225F
:100320001A703B6801333B60084A3B689342F3DB39
:1003300000BF1437BD4680BC704700BF00000020DE
:100340005C0400080000000000000020080000001D
:1003500080B500AF00BEFFF7BFFFFFF751FFFEE71C
:1003600080B400AFFEE780B400AFFEE780B483B096
:1003700000AF0C4B5B690B4A43F400335361094BEC
:100380005B6923F400337B607B684FF090431B680C
:100390004FF0904243F00303136000BF0C37BD469B
:1003A00080BC70470010024080B400AF1F4B9B68B8
:1003B0001E4A43F4803393604FF0A0439B684FF094
:1003C000A04223F0010393604FF0A0439B684FF0DD
:1003D000A04243F0805393604FF0A0439B684FF0DE
:1003E000A04243F00043936000BF4FF0A0439B68DE
:1003F000002BFADB4FF0A0431B6B4FF0A04243F001
:10040000400313634FF0A0439B684FF0A04243F0BA
:100410000103936000BF4FF0A0431B6803F001038A
:10042000002BF8D000BFBD4680BC704700030050D1
:1004300080B400AF4FF0A0439B684FF0A04243F060
:10044000040393604FF0A0431B6C034A136000BF8A
:0C045000BD4680BC704700BF00000020CB
:0400000508000200ED
:00000001FF
